{
  "contractName": "SolnSquareVerifier",
  "abi": [
    {
      "inputs": [
        {
          "internalType": "address",
          "name": "verifierAddress",
          "type": "address"
        }
      ],
      "stateMutability": "nonpayable",
      "type": "constructor"
    },
    {
      "anonymous": false,
      "inputs": [
        {
          "indexed": true,
          "internalType": "address",
          "name": "owner",
          "type": "address"
        },
        {
          "indexed": true,
          "internalType": "address",
          "name": "approved",
          "type": "address"
        },
        {
          "indexed": true,
          "internalType": "uint256",
          "name": "tokenId",
          "type": "uint256"
        }
      ],
      "name": "Approval",
      "type": "event"
    },
    {
      "anonymous": false,
      "inputs": [
        {
          "indexed": true,
          "internalType": "address",
          "name": "owner",
          "type": "address"
        },
        {
          "indexed": true,
          "internalType": "address",
          "name": "operator",
          "type": "address"
        },
        {
          "indexed": false,
          "internalType": "bool",
          "name": "approved",
          "type": "bool"
        }
      ],
      "name": "ApprovalForAll",
      "type": "event"
    },
    {
      "anonymous": false,
      "inputs": [
        {
          "indexed": false,
          "internalType": "address",
          "name": "owner",
          "type": "address"
        }
      ],
      "name": "Paused",
      "type": "event"
    },
    {
      "anonymous": false,
      "inputs": [
        {
          "indexed": true,
          "internalType": "address",
          "name": "to",
          "type": "address"
        },
        {
          "indexed": true,
          "internalType": "uint256",
          "name": "tokenId",
          "type": "uint256"
        },
        {
          "indexed": true,
          "internalType": "bytes32",
          "name": "key",
          "type": "bytes32"
        }
      ],
      "name": "SolutionAdded",
      "type": "event"
    },
    {
      "anonymous": false,
      "inputs": [
        {
          "indexed": true,
          "internalType": "address",
          "name": "from",
          "type": "address"
        },
        {
          "indexed": true,
          "internalType": "address",
          "name": "to",
          "type": "address"
        },
        {
          "indexed": true,
          "internalType": "uint256",
          "name": "tokenId",
          "type": "uint256"
        }
      ],
      "name": "Transfer",
      "type": "event"
    },
    {
      "anonymous": false,
      "inputs": [
        {
          "indexed": false,
          "internalType": "address",
          "name": "newOwner",
          "type": "address"
        }
      ],
      "name": "TransferOwnerShip",
      "type": "event"
    },
    {
      "anonymous": false,
      "inputs": [
        {
          "indexed": false,
          "internalType": "address",
          "name": "owner",
          "type": "address"
        }
      ],
      "name": "Unpaused",
      "type": "event"
    },
    {
      "inputs": [
        {
          "internalType": "bytes32",
          "name": "_myid",
          "type": "bytes32"
        },
        {
          "internalType": "string",
          "name": "_result",
          "type": "string"
        }
      ],
      "name": "__callback",
      "outputs": [],
      "stateMutability": "nonpayable",
      "type": "function"
    },
    {
      "inputs": [
        {
          "internalType": "bytes32",
          "name": "_myid",
          "type": "bytes32"
        },
        {
          "internalType": "string",
          "name": "_result",
          "type": "string"
        },
        {
          "internalType": "bytes",
          "name": "_proof",
          "type": "bytes"
        }
      ],
      "name": "__callback",
      "outputs": [],
      "stateMutability": "nonpayable",
      "type": "function"
    },
    {
      "inputs": [
        {
          "internalType": "address",
          "name": "to",
          "type": "address"
        },
        {
          "internalType": "uint256",
          "name": "tokenId",
          "type": "uint256"
        }
      ],
      "name": "approve",
      "outputs": [],
      "stateMutability": "nonpayable",
      "type": "function"
    },
    {
      "inputs": [
        {
          "internalType": "address",
          "name": "owner",
          "type": "address"
        }
      ],
      "name": "balanceOf",
      "outputs": [
        {
          "internalType": "uint256",
          "name": "",
          "type": "uint256"
        }
      ],
      "stateMutability": "view",
      "type": "function"
    },
    {
      "inputs": [
        {
          "internalType": "uint256",
          "name": "tokenId",
          "type": "uint256"
        }
      ],
      "name": "getApproved",
      "outputs": [
        {
          "internalType": "address",
          "name": "",
          "type": "address"
        }
      ],
      "stateMutability": "view",
      "type": "function"
    },
    {
      "inputs": [],
      "name": "getBaseTokenURI",
      "outputs": [
        {
          "internalType": "string",
          "name": "",
          "type": "string"
        }
      ],
      "stateMutability": "view",
      "type": "function"
    },
    {
      "inputs": [],
      "name": "getName",
      "outputs": [
        {
          "internalType": "string",
          "name": "",
          "type": "string"
        }
      ],
      "stateMutability": "view",
      "type": "function"
    },
    {
      "inputs": [],
      "name": "getOwner",
      "outputs": [
        {
          "internalType": "address",
          "name": "",
          "type": "address"
        }
      ],
      "stateMutability": "view",
      "type": "function"
    },
    {
      "inputs": [],
      "name": "getSymbol",
      "outputs": [
        {
          "internalType": "string",
          "name": "",
          "type": "string"
        }
      ],
      "stateMutability": "view",
      "type": "function"
    },
    {
      "inputs": [
        {
          "internalType": "address",
          "name": "owner",
          "type": "address"
        },
        {
          "internalType": "address",
          "name": "operator",
          "type": "address"
        }
      ],
      "name": "isApprovedForAll",
      "outputs": [
        {
          "internalType": "bool",
          "name": "",
          "type": "bool"
        }
      ],
      "stateMutability": "view",
      "type": "function"
    },
    {
      "inputs": [
        {
          "internalType": "address",
          "name": "to",
          "type": "address"
        },
        {
          "internalType": "uint256",
          "name": "tokenId",
          "type": "uint256"
        }
      ],
      "name": "mint",
      "outputs": [
        {
          "internalType": "bool",
          "name": "",
          "type": "bool"
        }
      ],
      "stateMutability": "nonpayable",
      "type": "function"
    },
    {
      "inputs": [
        {
          "internalType": "uint256",
          "name": "tokenId",
          "type": "uint256"
        }
      ],
      "name": "ownerOf",
      "outputs": [
        {
          "internalType": "address",
          "name": "",
          "type": "address"
        }
      ],
      "stateMutability": "view",
      "type": "function"
    },
    {
      "inputs": [
        {
          "internalType": "address",
          "name": "from",
          "type": "address"
        },
        {
          "internalType": "address",
          "name": "to",
          "type": "address"
        },
        {
          "internalType": "uint256",
          "name": "tokenId",
          "type": "uint256"
        }
      ],
      "name": "safeTransferFrom",
      "outputs": [],
      "stateMutability": "nonpayable",
      "type": "function"
    },
    {
      "inputs": [
        {
          "internalType": "address",
          "name": "from",
          "type": "address"
        },
        {
          "internalType": "address",
          "name": "to",
          "type": "address"
        },
        {
          "internalType": "uint256",
          "name": "tokenId",
          "type": "uint256"
        },
        {
          "internalType": "bytes",
          "name": "_data",
          "type": "bytes"
        }
      ],
      "name": "safeTransferFrom",
      "outputs": [],
      "stateMutability": "nonpayable",
      "type": "function"
    },
    {
      "inputs": [
        {
          "internalType": "address",
          "name": "to",
          "type": "address"
        },
        {
          "internalType": "bool",
          "name": "approved",
          "type": "bool"
        }
      ],
      "name": "setApprovalForAll",
      "outputs": [],
      "stateMutability": "nonpayable",
      "type": "function"
    },
    {
      "inputs": [
        {
          "internalType": "bool",
          "name": "value",
          "type": "bool"
        }
      ],
      "name": "setPauseToContract",
      "outputs": [],
      "stateMutability": "nonpayable",
      "type": "function"
    },
    {
      "inputs": [
        {
          "internalType": "bytes4",
          "name": "interfaceId",
          "type": "bytes4"
        }
      ],
      "name": "supportsInterface",
      "outputs": [
        {
          "internalType": "bool",
          "name": "",
          "type": "bool"
        }
      ],
      "stateMutability": "view",
      "type": "function"
    },
    {
      "inputs": [
        {
          "internalType": "uint256",
          "name": "index",
          "type": "uint256"
        }
      ],
      "name": "tokenByIndex",
      "outputs": [
        {
          "internalType": "uint256",
          "name": "",
          "type": "uint256"
        }
      ],
      "stateMutability": "view",
      "type": "function"
    },
    {
      "inputs": [
        {
          "internalType": "address",
          "name": "owner",
          "type": "address"
        },
        {
          "internalType": "uint256",
          "name": "index",
          "type": "uint256"
        }
      ],
      "name": "tokenOfOwnerByIndex",
      "outputs": [
        {
          "internalType": "uint256",
          "name": "",
          "type": "uint256"
        }
      ],
      "stateMutability": "view",
      "type": "function"
    },
    {
      "inputs": [
        {
          "internalType": "uint256",
          "name": "tokenId",
          "type": "uint256"
        }
      ],
      "name": "tokenURI",
      "outputs": [
        {
          "internalType": "string",
          "name": "",
          "type": "string"
        }
      ],
      "stateMutability": "view",
      "type": "function"
    },
    {
      "inputs": [],
      "name": "totalSupply",
      "outputs": [
        {
          "internalType": "uint256",
          "name": "",
          "type": "uint256"
        }
      ],
      "stateMutability": "view",
      "type": "function"
    },
    {
      "inputs": [
        {
          "internalType": "address",
          "name": "from",
          "type": "address"
        },
        {
          "internalType": "address",
          "name": "to",
          "type": "address"
        },
        {
          "internalType": "uint256",
          "name": "tokenId",
          "type": "uint256"
        }
      ],
      "name": "transferFrom",
      "outputs": [],
      "stateMutability": "nonpayable",
      "type": "function"
    },
    {
      "inputs": [
        {
          "internalType": "address",
          "name": "newOwner",
          "type": "address"
        }
      ],
      "name": "transferOwnership",
      "outputs": [],
      "stateMutability": "nonpayable",
      "type": "function"
    },
    {
      "inputs": [],
      "name": "verifier",
      "outputs": [
        {
          "internalType": "contract SquareVerifier",
          "name": "",
          "type": "address"
        }
      ],
      "stateMutability": "view",
      "type": "function"
    },
    {
      "inputs": [
        {
          "internalType": "uint256[2]",
          "name": "a",
          "type": "uint256[2]"
        },
        {
          "internalType": "uint256[2][2]",
          "name": "b",
          "type": "uint256[2][2]"
        },
        {
          "internalType": "uint256[2]",
          "name": "c",
          "type": "uint256[2]"
        },
        {
          "internalType": "uint256[2]",
          "name": "input",
          "type": "uint256[2]"
        }
      ],
      "name": "getVerifierKey",
      "outputs": [
        {
          "internalType": "bytes32",
          "name": "",
          "type": "bytes32"
        }
      ],
      "stateMutability": "pure",
      "type": "function"
    },
    {
      "inputs": [
        {
          "internalType": "address",
          "name": "_to",
          "type": "address"
        },
        {
          "internalType": "uint256",
          "name": "_tokenId",
          "type": "uint256"
        },
        {
          "internalType": "bytes32",
          "name": "_key",
          "type": "bytes32"
        }
      ],
      "name": "addSolution",
      "outputs": [],
      "stateMutability": "nonpayable",
      "type": "function"
    },
    {
      "inputs": [
        {
          "internalType": "address",
          "name": "to",
          "type": "address"
        },
        {
          "internalType": "uint256",
          "name": "tokenId",
          "type": "uint256"
        },
        {
          "internalType": "uint256[2]",
          "name": "a",
          "type": "uint256[2]"
        },
        {
          "internalType": "uint256[2][2]",
          "name": "b",
          "type": "uint256[2][2]"
        },
        {
          "internalType": "uint256[2]",
          "name": "c",
          "type": "uint256[2]"
        },
        {
          "internalType": "uint256[2]",
          "name": "input",
          "type": "uint256[2]"
        }
      ],
      "name": "mintToken",
      "outputs": [],
      "stateMutability": "nonpayable",
      "type": "function"
    }
  ],
  "bytecode": "0x60806040523480156200001157600080fd5b50604051620043f5380380620043f58339818101604052810190620000379190620003af565b6040518060400160405280600781526020017f47616c65446f74000000000000000000000000000000000000000000000000008152506040518060400160405280600381526020017f474f5400000000000000000000000000000000000000000000000000000000008152506040518060600160405280603f8152602001620043b6603f913933806000806101000a81548173ffffffffffffffffffffffffffffffffffffffff021916908373ffffffffffffffffffffffffffffffffffffffff1602179055507fb1eb34684306bcea7f9ed508931dc13b5993c8fdd00fe65c2e4680ae2610a701816040516200012f9190620003f2565b60405180910390a150620001506301ffc9a760e01b6200024860201b60201c565b60008060146101000a81548160ff021916908315150217905550620001826380ac58cd60e01b6200024860201b60201c565b6200019a63780e9d6360e01b6200024860201b60201c565b82600f9080519060200190620001b2929190620002e8565b508160109080519060200190620001cb929190620002e8565b508060119080519060200190620001e4929190620002e8565b50620001fd635b5e139f60e01b6200024860201b60201c565b50505080601360006101000a81548173ffffffffffffffffffffffffffffffffffffffff021916908373ffffffffffffffffffffffffffffffffffffffff16021790555050620004c7565b63ffffffff60e01b817bffffffffffffffffffffffffffffffffffffffffffffffffffffffff191614156200027c57600080fd5b6001806000837bffffffffffffffffffffffffffffffffffffffffffffffffffffffff19167bffffffffffffffffffffffffffffffffffffffffffffffffffffffff1916815260200190815260200160002060006101000a81548160ff02191690831515021790555050565b828054620002f69062000443565b90600052602060002090601f0160209004810192826200031a576000855562000366565b82601f106200033557805160ff191683800117855562000366565b8280016001018555821562000366579182015b828111156200036557825182559160200191906001019062000348565b5b50905062000375919062000379565b5090565b5b80821115620003945760008160009055506001016200037a565b5090565b600081519050620003a981620004ad565b92915050565b600060208284031215620003c857620003c7620004a8565b5b6000620003d88482850162000398565b91505092915050565b620003ec816200040f565b82525050565b6000602082019050620004096000830184620003e1565b92915050565b60006200041c8262000423565b9050919050565b600073ffffffffffffffffffffffffffffffffffffffff82169050919050565b600060028204905060018216806200045c57607f821691505b6020821081141562000473576200047262000479565b5b50919050565b7f4e487b7100000000000000000000000000000000000000000000000000000000600052602260045260246000fd5b600080fd5b620004b8816200040f565b8114620004c457600080fd5b50565b613edf80620004d76000396000f3fe608060405234801561001057600080fd5b50600436106101a95760003560e01c806342842e0e116100f9578063b88d4fde11610097578063c87b56dd11610071578063c87b56dd146104de578063ccd5835a1461050e578063e985e9c51461052a578063f2fde38b1461055a576101a9565b8063b88d4fde14610488578063bdc32be0146104a4578063bedf3bb4146104c2576101a9565b806370a08231116100d357806370a08231146104025780637469050214610432578063893d20e81461044e578063a22cb4651461046c576101a9565b806342842e0e146103865780634f6ccce7146103a25780636352211e146103d2576101a9565b806323b872dd116101665780632f745c59116101405780632f745c59146102da578063374f1a971461030a57806338bbfa501461033a57806340c10f1914610356576101a9565b806323b872dd1461028457806327dc297e146102a05780632b7ac3f3146102bc576101a9565b806301ffc9a7146101ae578063081812fc146101de578063095ea7b31461020e578063150704011461022a57806317d7de7c1461024857806318160ddd14610266575b600080fd5b6101c860048036038101906101c39190612e1b565b610576565b6040516101d59190613472565b60405180910390f35b6101f860048036038101906101f39190612e75565b6105de565b604051610205919061340b565b60405180910390f35b61022860048036038101906102239190612b4e565b61061b565b005b6102326107be565b60405161023f91906134c3565b60405180910390f35b610250610850565b60405161025d91906134c3565b60405180910390f35b61026e6108e2565b60405161027b9190613690565b60405180910390f35b61029e60048036038101906102999190612a38565b6108ef565b005b6102ba60048036038101906102b59190612d34565b610948565b005b6102c46109a4565b6040516102d191906134a8565b60405180910390f35b6102f460048036038101906102ef9190612b4e565b6109ca565b6040516103019190613690565b60405180910390f35b610324600480360381019061031f9190612c71565b610a44565b604051610331919061348d565b60405180910390f35b610354600480360381019061034f9190612d90565b610a7d565b005b610370600480360381019061036b9190612b4e565b610a82565b60405161037d9190613472565b60405180910390f35b6103a0600480360381019061039b9190612a38565b610b30565b005b6103bc60048036038101906103b79190612e75565b610b50565b6040516103c99190613690565b60405180910390f35b6103ec60048036038101906103e79190612e75565b610b8b565b6040516103f9919061340b565b60405180910390f35b61041c600480360381019061041791906129cb565b610bc8565b6040516104299190613690565b60405180910390f35b61044c60048036038101906104479190612c1e565b610c18565b005b610456610d79565b604051610463919061340b565b60405180910390f35b61048660048036038101906104819190612b0e565b610da2565b005b6104a2600480360381019061049d9190612a8b565b610ed8565b005b6104ac610efe565b6040516104b991906134c3565b60405180910390f35b6104dc60048036038101906104d79190612cda565b610f90565b005b6104f860048036038101906104f39190612e75565b6110c5565b60405161050591906134c3565b60405180910390f35b61052860048036038101906105239190612b8e565b61117c565b005b610544600480360381019061053f91906129f8565b61147e565b6040516105519190613472565b60405180910390f35b610574600480360381019061056f91906129cb565b611512565b005b600060016000837bffffffffffffffffffffffffffffffffffffffffffffffffffffffff19167bffffffffffffffffffffffffffffffffffffffffffffffffffffffff1916815260200190815260200160002060009054906101000a900460ff169050919050565b60006003600083815260200190815260200160002060009054906101000a900473ffffffffffffffffffffffffffffffffffffffff169050919050565b6002600082815260200190815260200160002060009054906101000a900473ffffffffffffffffffffffffffffffffffffffff1673ffffffffffffffffffffffffffffffffffffffff168273ffffffffffffffffffffffffffffffffffffffff1614156106bd576040517f08c379a00000000000000000000000000000000000000000000000000000000081526004016106b490613545565b60405180910390fd5b600115156106cb338361168a565b15151461070d576040517f08c379a000000000000000000000000000000000000000000000000000000000815260040161070490613645565b60405180910390fd5b816003600083815260200190815260200160002060006101000a81548173ffffffffffffffffffffffffffffffffffffffff021916908373ffffffffffffffffffffffffffffffffffffffff160217905550803373ffffffffffffffffffffffffffffffffffffffff168373ffffffffffffffffffffffffffffffffffffffff167f8c5be1e5ebec7d5bd14f71427d1e84f3dd0314c0f7b2291e5b200ac8c7c3b92560405160405180910390a45050565b6060601080546107cd90613a0c565b80601f01602080910402602001604051908101604052809291908181526020018280546107f990613a0c565b80156108465780601f1061081b57610100808354040283529160200191610846565b820191906000526020600020905b81548152906001019060200180831161082957829003601f168201915b5050505050905090565b6060600f805461085f90613a0c565b80601f016020809104026020016040519081016040528092919081815260200182805461088b90613a0c565b80156108d85780601f106108ad576101008083540402835291602001916108d8565b820191906000526020600020905b8154815290600101906020018083116108bb57829003601f168201915b5050505050905090565b6000600880549050905090565b6108f9338261168a565b610938576040517f08c379a000000000000000000000000000000000000000000000000000000000815260040161092f90613625565b60405180910390fd5b61094383838361171f565b505050565b6109a08282600067ffffffffffffffff81111561096857610967613ba5565b5b6040519080825280601f01601f19166020018201604052801561099a5781602001600182028036833780820191505090505b50610a7d565b5050565b601360009054906101000a900473ffffffffffffffffffffffffffffffffffffffff1681565b60006109d583610bc8565b82106109e057600080fd5b600660008473ffffffffffffffffffffffffffffffffffffffff1673ffffffffffffffffffffffffffffffffffffffff1681526020019081526020016000208281548110610a3157610a30613b76565b5b9060005260206000200154905092915050565b600084848484604051602001610a5d94939291906133bd565b604051602081830303815290604052805190602001209050949350505050565b505050565b60008060009054906101000a900473ffffffffffffffffffffffffffffffffffffffff1673ffffffffffffffffffffffffffffffffffffffff163373ffffffffffffffffffffffffffffffffffffffff1614610b13576040517f08c379a0000000000000000000000000000000000000000000000000000000008152600401610b0a90613585565b60405180910390fd5b610b1d8383611743565b610b2682611764565b6001905092915050565b610b4b83838360405180602001604052806000815250610ed8565b505050565b6000610b5a6108e2565b8210610b6557600080fd5b60088281548110610b7957610b78613b76565b5b90600052602060002001549050919050565b60006002600083815260200190815260200160002060009054906101000a900473ffffffffffffffffffffffffffffffffffffffff169050919050565b6000610c11600460008473ffffffffffffffffffffffffffffffffffffffff1673ffffffffffffffffffffffffffffffffffffffff16815260200190815260200160002061183c565b9050919050565b600060405180604001604052808481526020018573ffffffffffffffffffffffffffffffffffffffff16815250905060148190806001815401808255809150506001900390600052602060002090600202016000909190919091506000820151816000015560208201518160010160006101000a81548173ffffffffffffffffffffffffffffffffffffffff021916908373ffffffffffffffffffffffffffffffffffffffff160217905550505080601560008481526020019081526020016000206000820151816000015560208201518160010160006101000a81548173ffffffffffffffffffffffffffffffffffffffff021916908373ffffffffffffffffffffffffffffffffffffffff16021790555090505081838573ffffffffffffffffffffffffffffffffffffffff167fb28582aaae510e6d1868676347916349fa4c0c49734e1a01e4373ff26a57f09260405160405180910390a450505050565b60008060009054906101000a900473ffffffffffffffffffffffffffffffffffffffff16905090565b3373ffffffffffffffffffffffffffffffffffffffff168273ffffffffffffffffffffffffffffffffffffffff161415610ddb57600080fd5b80600560003373ffffffffffffffffffffffffffffffffffffffff1673ffffffffffffffffffffffffffffffffffffffff16815260200190815260200160002060008473ffffffffffffffffffffffffffffffffffffffff1673ffffffffffffffffffffffffffffffffffffffff16815260200190815260200160002060006101000a81548160ff0219169083151502179055508173ffffffffffffffffffffffffffffffffffffffff163373ffffffffffffffffffffffffffffffffffffffff167f17307eab39ab6107e8899845ad3d59bd9653f200f220920489ca2b5937696c3183604051610ecc9190613472565b60405180910390a35050565b610ee38484846108ef565b610eef8484848461184a565b610ef857600080fd5b50505050565b606060118054610f0d90613a0c565b80601f0160208091040260200160405190810160405280929190818152602001828054610f3990613a0c565b8015610f865780601f10610f5b57610100808354040283529160200191610f86565b820191906000526020600020905b815481529060010190602001808311610f6957829003601f168201915b5050505050905090565b60008054906101000a900473ffffffffffffffffffffffffffffffffffffffff1673ffffffffffffffffffffffffffffffffffffffff163373ffffffffffffffffffffffffffffffffffffffff161461101e576040517f08c379a000000000000000000000000000000000000000000000000000000000815260040161101590613585565b60405180910390fd5b80600060146101000a81548160ff02191690831515021790555060011515811515141561107d577f62e78cea01bee320cd4e420270b5ea74000d11b0c9f74754ebdbfc544b05a25833604051611074919061340b565b60405180910390a15b6000151581151514156110c2577f5db9ee0a495bf2e6ff9c91a7834c1ba4fdd244a5e8aa4e537bd38aeae4b073aa336040516110b9919061340b565b60405180910390a15b50565b60606110d082611961565b6110d957600080fd5b6012600083815260200190815260200160002080546110f790613a0c565b80601f016020809104026020016040519081016040528092919081815260200182805461112390613a0c565b80156111705780601f1061114557610100808354040283529160200191611170565b820191906000526020600020905b81548152906001019060200180831161115357829003601f168201915b50505050509050919050565b60001515600060149054906101000a900460ff161515146111d2576040517f08c379a00000000000000000000000000000000000000000000000000000000081526004016111c990613505565b60405180910390fd5b60006111e085858585610a44565b9050600073ffffffffffffffffffffffffffffffffffffffff166015600083815260200190815260200160002060010160009054906101000a900473ffffffffffffffffffffffffffffffffffffffff1673ffffffffffffffffffffffffffffffffffffffff1614611287576040517f08c379a000000000000000000000000000000000000000000000000000000000815260040161127e90613605565b60405180910390fd5b600060405180606001604052806040518060400160405280896000600281106112b3576112b2613b76565b5b60200201518152602001896001600281106112d1576112d0613b76565b5b602002015181525081526020016040518060400160405280886000600281106112fd576112fc613b76565b5b602002015181526020018860016002811061131b5761131a613b76565b5b6020020151815250815260200160405180604001604052808760006002811061134757611346613b76565b5b602002015181526020018760016002811061136557611364613b76565b5b60200201518152508152509050601360009054906101000a900473ffffffffffffffffffffffffffffffffffffffff1673ffffffffffffffffffffffffffffffffffffffff166343cd76fc82856040518363ffffffff1660e01b81526004016113cf929190613665565b60206040518083038186803b1580156113e757600080fd5b505afa1580156113fb573d6000803e3d6000fd5b505050506040513d601f19601f8201168201806040525081019061141f9190612d07565b61145e576040517f08c379a0000000000000000000000000000000000000000000000000000000008152600401611455906135c5565b60405180910390fd5b611469888884610c18565b6114738888610a82565b505050505050505050565b6000600560008473ffffffffffffffffffffffffffffffffffffffff1673ffffffffffffffffffffffffffffffffffffffff16815260200190815260200160002060008373ffffffffffffffffffffffffffffffffffffffff1673ffffffffffffffffffffffffffffffffffffffff16815260200190815260200160002060009054906101000a900460ff16905092915050565b60008054906101000a900473ffffffffffffffffffffffffffffffffffffffff1673ffffffffffffffffffffffffffffffffffffffff163373ffffffffffffffffffffffffffffffffffffffff16146115a0576040517f08c379a000000000000000000000000000000000000000000000000000000000815260040161159790613585565b60405180910390fd5b600073ffffffffffffffffffffffffffffffffffffffff168173ffffffffffffffffffffffffffffffffffffffff161415611610576040517f08c379a0000000000000000000000000000000000000000000000000000000008152600401611607906135a5565b60405180910390fd5b806000806101000a81548173ffffffffffffffffffffffffffffffffffffffff021916908373ffffffffffffffffffffffffffffffffffffffff1602179055507fb1eb34684306bcea7f9ed508931dc13b5993c8fdd00fe65c2e4680ae2610a7018160405161167f919061340b565b60405180910390a150565b60008061169683610b8b565b90508073ffffffffffffffffffffffffffffffffffffffff168473ffffffffffffffffffffffffffffffffffffffff16148061170557508373ffffffffffffffffffffffffffffffffffffffff166116ed846105de565b73ffffffffffffffffffffffffffffffffffffffff16145b806117165750611715818561147e565b5b91505092915050565b61172a8383836119d3565b6117348382611c77565b61173e8282611e28565b505050565b61174d8282611eec565b6117578282611e28565b6117608161209d565b5050565b61176d81611961565b61177657600080fd5b6118126011805461178690613a0c565b80601f01602080910402602001604051908101604052809291908181526020018280546117b290613a0c565b80156117ff5780601f106117d4576101008083540402835291602001916117ff565b820191906000526020600020905b8154815290600101906020018083116117e257829003601f168201915b505050505061180d836120e6565b61224d565b601260008381526020019081526020016000209080519060200190611838929190612691565b5050565b600081600001549050919050565b600061186b8473ffffffffffffffffffffffffffffffffffffffff16612291565b6118785760019050611959565b60008473ffffffffffffffffffffffffffffffffffffffff1663150b7a02338887876040518563ffffffff1660e01b81526004016118b99493929190613426565b602060405180830381600087803b1580156118d357600080fd5b505af11580156118e7573d6000803e3d6000fd5b505050506040513d601f19601f8201168201806040525081019061190b9190612e48565b905063150b7a0260e01b7bffffffffffffffffffffffffffffffffffffffffffffffffffffffff1916817bffffffffffffffffffffffffffffffffffffffffffffffffffffffff1916149150505b949350505050565b6000806002600084815260200190815260200160002060009054906101000a900473ffffffffffffffffffffffffffffffffffffffff169050600073ffffffffffffffffffffffffffffffffffffffff168173ffffffffffffffffffffffffffffffffffffffff161415915050919050565b8273ffffffffffffffffffffffffffffffffffffffff166002600083815260200190815260200160002060009054906101000a900473ffffffffffffffffffffffffffffffffffffffff1673ffffffffffffffffffffffffffffffffffffffff1614611a74576040517f08c379a0000000000000000000000000000000000000000000000000000000008152600401611a6b90613525565b60405180910390fd5b600073ffffffffffffffffffffffffffffffffffffffff168273ffffffffffffffffffffffffffffffffffffffff161415611ae4576040517f08c379a0000000000000000000000000000000000000000000000000000000008152600401611adb90613565565b60405180910390fd5b60006003600083815260200190815260200160002060006101000a81548173ffffffffffffffffffffffffffffffffffffffff021916908373ffffffffffffffffffffffffffffffffffffffff160217905550611b7e600460008573ffffffffffffffffffffffffffffffffffffffff1673ffffffffffffffffffffffffffffffffffffffff1681526020019081526020016000206122a4565b611bc5600460008473ffffffffffffffffffffffffffffffffffffffff1673ffffffffffffffffffffffffffffffffffffffff168152602001908152602001600020612300565b816002600083815260200190815260200160002060006101000a81548173ffffffffffffffffffffffffffffffffffffffff021916908373ffffffffffffffffffffffffffffffffffffffff160217905550808273ffffffffffffffffffffffffffffffffffffffff168473ffffffffffffffffffffffffffffffffffffffff167fddf252ad1be2c89b69c2b068fc378daa952ba7f163c4a11628f55a4df523b3ef60405160405180910390a4505050565b60006001600660008573ffffffffffffffffffffffffffffffffffffffff1673ffffffffffffffffffffffffffffffffffffffff16815260200190815260200160002080549050611cc891906138b8565b9050600060076000848152602001908152602001600020549050818114611dc3576000600660008673ffffffffffffffffffffffffffffffffffffffff1673ffffffffffffffffffffffffffffffffffffffff1681526020019081526020016000208381548110611d3c57611d3b613b76565b5b9060005260206000200154905080600660008773ffffffffffffffffffffffffffffffffffffffff1673ffffffffffffffffffffffffffffffffffffffff1681526020019081526020016000208381548110611d9b57611d9a613b76565b5b9060005260206000200181905550816007600083815260200190815260200160002081905550505b600660008573ffffffffffffffffffffffffffffffffffffffff1673ffffffffffffffffffffffffffffffffffffffff1681526020019081526020016000208281548110611e1457611e13613b76565b5b906000526020600020016000905550505050565b600660008373ffffffffffffffffffffffffffffffffffffffff1673ffffffffffffffffffffffffffffffffffffffff168152602001908152602001600020805490506007600083815260200190815260200160002081905550600660008373ffffffffffffffffffffffffffffffffffffffff1673ffffffffffffffffffffffffffffffffffffffff1681526020019081526020016000208190806001815401808255809150506001900390600052602060002001600090919091909150555050565b600073ffffffffffffffffffffffffffffffffffffffff168273ffffffffffffffffffffffffffffffffffffffff161415611f5c576040517f08c379a0000000000000000000000000000000000000000000000000000000008152600401611f5390613565565b60405180910390fd5b611f6581611961565b15611fa5576040517f08c379a0000000000000000000000000000000000000000000000000000000008152600401611f9c906135e5565b60405180910390fd5b816002600083815260200190815260200160002060006101000a81548173ffffffffffffffffffffffffffffffffffffffff021916908373ffffffffffffffffffffffffffffffffffffffff16021790555061203e600460008473ffffffffffffffffffffffffffffffffffffffff1673ffffffffffffffffffffffffffffffffffffffff168152602001908152602001600020612300565b808273ffffffffffffffffffffffffffffffffffffffff163373ffffffffffffffffffffffffffffffffffffffff167fddf252ad1be2c89b69c2b068fc378daa952ba7f163c4a11628f55a4df523b3ef60405160405180910390a45050565b6008805490506009600083815260200190815260200160002081905550600881908060018154018082558091505060019003906000526020600020016000909190919091505550565b6060600082141561212e576040518060400160405280600181526020017f30000000000000000000000000000000000000000000000000000000000000008152509050612248565b600082905060005b6000821461216057808061214990613a6f565b915050600a826121599190613887565b9150612136565b60008167ffffffffffffffff81111561217c5761217b613ba5565b5b6040519080825280601f01601f1916602001820160405280156121ae5781602001600182028036833780820191505090505b50905060008290508593505b6000841461224057600a846121cf9190613ab8565b60306121db9190613831565b60f81b82826121e9906139e2565b925082815181106121fd576121fc613b76565b5b60200101907effffffffffffffffffffffffffffffffffffffffffffffffffffffffffffff1916908160001a905350600a846122399190613887565b93506121ba565b819450505050505b919050565b60606122898383604051806020016040528060008152506040518060200160405280600081525060405180602001604052806000815250612316565b905092915050565b600080823b905060008111915050919050565b600081600001549050600081116122f0576040517f08c379a00000000000000000000000000000000000000000000000000000000081526004016122e7906134e5565b60405180910390fd5b6001810382600001819055505050565b6001816000016000828254019250508190555050565b6060600086905060008690506000869050600086905060008690506000815183518551875189516123479190613831565b6123519190613831565b61235b9190613831565b6123659190613831565b67ffffffffffffffff81111561237e5761237d613ba5565b5b6040519080825280601f01601f1916602001820160405280156123b05781602001600182028036833780820191505090505b5090506000819050600080600090505b8851811015612448578881815181106123dc576123db613b76565b5b602001015160f81c60f81b8383806123f390613a6f565b94508151811061240657612405613b76565b5b60200101907effffffffffffffffffffffffffffffffffffffffffffffffffffffffffffff1916908160001a905350808061244090613a6f565b9150506123c0565b600090505b87518110156124d55787818151811061246957612468613b76565b5b602001015160f81c60f81b83838061248090613a6f565b94508151811061249357612492613b76565b5b60200101907effffffffffffffffffffffffffffffffffffffffffffffffffffffffffffff1916908160001a90535080806124cd90613a6f565b91505061244d565b600090505b8651811015612562578681815181106124f6576124f5613b76565b5b602001015160f81c60f81b83838061250d90613a6f565b9450815181106125205761251f613b76565b5b60200101907effffffffffffffffffffffffffffffffffffffffffffffffffffffffffffff1916908160001a905350808061255a90613a6f565b9150506124da565b600090505b85518110156125ef5785818151811061258357612582613b76565b5b602001015160f81c60f81b83838061259a90613a6f565b9450815181106125ad576125ac613b76565b5b60200101907effffffffffffffffffffffffffffffffffffffffffffffffffffffffffffff1916908160001a90535080806125e790613a6f565b915050612567565b600090505b845181101561267c578481815181106126105761260f613b76565b5b602001015160f81c60f81b83838061262790613a6f565b94508151811061263a57612639613b76565b5b60200101907effffffffffffffffffffffffffffffffffffffffffffffffffffffffffffff1916908160001a905350808061267490613a6f565b9150506125f4565b82995050505050505050505095945050505050565b82805461269d90613a0c565b90600052602060002090601f0160209004810192826126bf5760008555612706565b82601f106126d857805160ff1916838001178555612706565b82800160010185558215612706579182015b828111156127055782518255916020019190600101906126ea565b5b5090506127139190612717565b5090565b5b80821115612730576000816000905550600101612718565b5090565b6000612747612742846136d0565b6136ab565b9050808285604086028201111561276157612760613bd9565b5b60005b85811015612791578161277788826128c6565b845260208401935060408301925050600181019050612764565b5050509392505050565b60006127ae6127a9846136f6565b6136ab565b905080828560208602820111156127c8576127c7613bd9565b5b60005b858110156127f857816127de88826129b6565b8452602084019350602083019250506001810190506127cb565b5050509392505050565b60006128156128108461371c565b6136ab565b90508281526020810184848401111561283157612830613bde565b5b61283c8482856139a0565b509392505050565b60006128576128528461374d565b6136ab565b90508281526020810184848401111561287357612872613bde565b5b61287e8482856139a0565b509392505050565b60008135905061289581613e36565b92915050565b600082601f8301126128b0576128af613bd4565b5b60026128bd848285612734565b91505092915050565b600082601f8301126128db576128da613bd4565b5b60026128e884828561279b565b91505092915050565b60008135905061290081613e4d565b92915050565b60008151905061291581613e4d565b92915050565b60008135905061292a81613e64565b92915050565b60008135905061293f81613e7b565b92915050565b60008151905061295481613e7b565b92915050565b600082601f83011261296f5761296e613bd4565b5b813561297f848260208601612802565b91505092915050565b600082601f83011261299d5761299c613bd4565b5b81356129ad848260208601612844565b91505092915050565b6000813590506129c581613e92565b92915050565b6000602082840312156129e1576129e0613be8565b5b60006129ef84828501612886565b91505092915050565b60008060408385031215612a0f57612a0e613be8565b5b6000612a1d85828601612886565b9250506020612a2e85828601612886565b9150509250929050565b600080600060608486031215612a5157612a50613be8565b5b6000612a5f86828701612886565b9350506020612a7086828701612886565b9250506040612a81868287016129b6565b9150509250925092565b60008060008060808587031215612aa557612aa4613be8565b5b6000612ab387828801612886565b9450506020612ac487828801612886565b9350506040612ad5878288016129b6565b925050606085013567ffffffffffffffff811115612af657612af5613be3565b5b612b028782880161295a565b91505092959194509250565b60008060408385031215612b2557612b24613be8565b5b6000612b3385828601612886565b9250506020612b44858286016128f1565b9150509250929050565b60008060408385031215612b6557612b64613be8565b5b6000612b7385828601612886565b9250506020612b84858286016129b6565b9150509250929050565b6000806000806000806101808789031215612bac57612bab613be8565b5b6000612bba89828a01612886565b9650506020612bcb89828a016129b6565b9550506040612bdc89828a016128c6565b9450506080612bed89828a0161289b565b935050610100612bff89828a016128c6565b925050610140612c1189828a016128c6565b9150509295509295509295565b600080600060608486031215612c3757612c36613be8565b5b6000612c4586828701612886565b9350506020612c56868287016129b6565b9250506040612c678682870161291b565b9150509250925092565b6000806000806101408587031215612c8c57612c8b613be8565b5b6000612c9a878288016128c6565b9450506040612cab8782880161289b565b93505060c0612cbc878288016128c6565b925050610100612cce878288016128c6565b91505092959194509250565b600060208284031215612cf057612cef613be8565b5b6000612cfe848285016128f1565b91505092915050565b600060208284031215612d1d57612d1c613be8565b5b6000612d2b84828501612906565b91505092915050565b60008060408385031215612d4b57612d4a613be8565b5b6000612d598582860161291b565b925050602083013567ffffffffffffffff811115612d7a57612d79613be3565b5b612d8685828601612988565b9150509250929050565b600080600060608486031215612da957612da8613be8565b5b6000612db78682870161291b565b935050602084013567ffffffffffffffff811115612dd857612dd7613be3565b5b612de486828701612988565b925050604084013567ffffffffffffffff811115612e0557612e04613be3565b5b612e118682870161295a565b9150509250925092565b600060208284031215612e3157612e30613be8565b5b6000612e3f84828501612930565b91505092915050565b600060208284031215612e5e57612e5d613be8565b5b6000612e6c84828501612945565b91505092915050565b600060208284031215612e8b57612e8a613be8565b5b6000612e99848285016129b6565b91505092915050565b6000612eae8383612ffe565b60408301905092915050565b6000612ec68383613390565b60208301905092915050565b6000612ede83836133ae565b60208301905092915050565b612ef3816138ec565b82525050565b612f0281613792565b612f0c81846137d8565b9250612f178261377e565b8060005b83811015612f48578151612f2f8782612ea2565b9650612f3a836137be565b925050600181019050612f1b565b505050505050565b612f598161379d565b612f6381846137e3565b9250612f6e82613788565b8060005b83811015612f9f578151612f868782612eba565b9650612f91836137cb565b925050600181019050612f72565b505050505050565b612fb08161379d565b612fba81846137ee565b9250612fc582613788565b8060005b83811015612ff6578151612fdd8782612eba565b9650612fe8836137cb565b925050600181019050612fc9565b505050505050565b6130078161379d565b61301181846137f9565b925061301c82613788565b8060005b8381101561304d5781516130348782612ed2565b965061303f836137cb565b925050600181019050613020565b505050505050565b61305e8161379d565b6130688184613804565b925061307382613788565b8060005b838110156130a457815161308b8782612ed2565b9650613096836137cb565b925050600181019050613077565b505050505050565b6130b5816138fe565b82525050565b6130c48161390a565b82525050565b60006130d5826137a8565b6130df818561380f565b93506130ef8185602086016139af565b6130f881613bed565b840191505092915050565b61310c8161396a565b82525050565b600061311d826137b3565b6131278185613820565b93506131378185602086016139af565b61314081613bed565b840191505092915050565b6000613158601b83613820565b915061316382613bfe565b602082019050919050565b600061317b601683613820565b915061318682613c27565b602082019050919050565b600061319e602683613820565b91506131a982613c50565b604082019050919050565b60006131c1602083613820565b91506131cc82613c9f565b602082019050919050565b60006131e4602083613820565b91506131ef82613cc8565b602082019050919050565b6000613207602083613820565b915061321282613cf1565b602082019050919050565b600061322a602b83613820565b915061323582613d1a565b604082019050919050565b600061324d601583613820565b915061325882613d69565b602082019050919050565b6000613270601883613820565b915061327b82613d92565b602082019050919050565b6000613293601883613820565b915061329e82613dbb565b602082019050919050565b60006132b6601b83613820565b91506132c182613de4565b602082019050919050565b60006132d9602083613820565b91506132e482613e0d565b602082019050919050565b6040820160008201516133056000850182613390565b5060208201516133186020850182613390565b50505050565b6080820160008201516133346000850182612f50565b5060208201516133476040850182612f50565b50505050565b6101008201600082015161336460008501826132ef565b506020820151613377604085018261331e565b50604082015161338a60c08501826132ef565b50505050565b61339981613960565b82525050565b6133a881613960565b82525050565b6133b781613960565b82525050565b60006133c98287613055565b6040820191506133d98286612ef9565b6080820191506133e98285613055565b6040820191506133f98284613055565b60408201915081905095945050505050565b60006020820190506134206000830184612eea565b92915050565b600060808201905061343b6000830187612eea565b6134486020830186612eea565b613455604083018561339f565b818103606083015261346781846130ca565b905095945050505050565b600060208201905061348760008301846130ac565b92915050565b60006020820190506134a260008301846130bb565b92915050565b60006020820190506134bd6000830184613103565b92915050565b600060208201905081810360008301526134dd8184613112565b905092915050565b600060208201905081810360008301526134fe8161314b565b9050919050565b6000602082019050818103600083015261351e8161316e565b9050919050565b6000602082019050818103600083015261353e81613191565b9050919050565b6000602082019050818103600083015261355e816131b4565b9050919050565b6000602082019050818103600083015261357e816131d7565b9050919050565b6000602082019050818103600083015261359e816131fa565b9050919050565b600060208201905081810360008301526135be8161321d565b9050919050565b600060208201905081810360008301526135de81613240565b9050919050565b600060208201905081810360008301526135fe81613263565b9050919050565b6000602082019050818103600083015261361e81613286565b9050919050565b6000602082019050818103600083015261363e816132a9565b9050919050565b6000602082019050818103600083015261365e816132cc565b9050919050565b60006101408201905061367b600083018561334d565b613689610100830184612fa7565b9392505050565b60006020820190506136a5600083018461339f565b92915050565b60006136b56136c6565b90506136c18282613a3e565b919050565b6000604051905090565b600067ffffffffffffffff8211156136eb576136ea613ba5565b5b602082029050919050565b600067ffffffffffffffff82111561371157613710613ba5565b5b602082029050919050565b600067ffffffffffffffff82111561373757613736613ba5565b5b61374082613bed565b9050602081019050919050565b600067ffffffffffffffff82111561376857613767613ba5565b5b61377182613bed565b9050602081019050919050565b6000819050919050565b6000819050919050565b600060029050919050565b600060029050919050565b600081519050919050565b600081519050919050565b6000602082019050919050565b6000602082019050919050565b600081905092915050565b600081905092915050565b600081905092915050565b600081905092915050565b600081905092915050565b600082825260208201905092915050565b600082825260208201905092915050565b600061383c82613960565b915061384783613960565b9250827fffffffffffffffffffffffffffffffffffffffffffffffffffffffffffffffff0382111561387c5761387b613ae9565b5b828201905092915050565b600061389282613960565b915061389d83613960565b9250826138ad576138ac613b18565b5b828204905092915050565b60006138c382613960565b91506138ce83613960565b9250828210156138e1576138e0613ae9565b5b828203905092915050565b60006138f782613940565b9050919050565b60008115159050919050565b6000819050919050565b60007fffffffff0000000000000000000000000000000000000000000000000000000082169050919050565b600073ffffffffffffffffffffffffffffffffffffffff82169050919050565b6000819050919050565b60006139758261397c565b9050919050565b60006139878261398e565b9050919050565b600061399982613940565b9050919050565b82818337600083830152505050565b60005b838110156139cd5780820151818401526020810190506139b2565b838111156139dc576000848401525b50505050565b60006139ed82613960565b91506000821415613a0157613a00613ae9565b5b600182039050919050565b60006002820490506001821680613a2457607f821691505b60208210811415613a3857613a37613b47565b5b50919050565b613a4782613bed565b810181811067ffffffffffffffff82111715613a6657613a65613ba5565b5b80604052505050565b6000613a7a82613960565b91507fffffffffffffffffffffffffffffffffffffffffffffffffffffffffffffffff821415613aad57613aac613ae9565b5b600182019050919050565b6000613ac382613960565b9150613ace83613960565b925082613ade57613add613b18565b5b828206905092915050565b7f4e487b7100000000000000000000000000000000000000000000000000000000600052601160045260246000fd5b7f4e487b7100000000000000000000000000000000000000000000000000000000600052601260045260246000fd5b7f4e487b7100000000000000000000000000000000000000000000000000000000600052602260045260246000fd5b7f4e487b7100000000000000000000000000000000000000000000000000000000600052603260045260246000fd5b7f4e487b7100000000000000000000000000000000000000000000000000000000600052604160045260246000fd5b600080fd5b600080fd5b600080fd5b600080fd5b600080fd5b6000601f19601f8301169050919050565b7f436f756e7465723a2064656372656d656e74206f766572666c6f770000000000600082015250565b7f54686520636f6e74726163742069732070617573656400000000000000000000600082015250565b7f5370656e646572206d75737420626520746865206f776e657220746f2074726160008201527f6e736665722e0000000000000000000000000000000000000000000000000000602082015250565b7f546865206164647265737320697320616c726561647920746865206f776e6572600082015250565b7f496e76616c6964206164647265737320696e20746f20706172616d657465722e600082015250565b7f43616c6c6572206973206e6f742074686520636f6e7472616374206f776e6572600082015250565b7f546865206f776e657220616464726573732068617320746f20626520616e207260008201527f65616c2061646472657373000000000000000000000000000000000000000000602082015250565b7f536f6c7574696f6e20697320696e636f72726563740000000000000000000000600082015250565b7f546f6b656e20697320616c7265616479206d696e7465642e0000000000000000600082015250565b7f536f6c7574696f6e20697320616c726561647920757365640000000000000000600082015250565b7f4572726f72207472616e666572696e672074686520746f6b656e2e0000000000600082015250565b7f54686520746f6b656e2069736e277420617070726f76656420746f2073656e64600082015250565b613e3f816138ec565b8114613e4a57600080fd5b50565b613e56816138fe565b8114613e6157600080fd5b50565b613e6d8161390a565b8114613e7857600080fd5b50565b613e8481613914565b8114613e8f57600080fd5b50565b613e9b81613960565b8114613ea657600080fd5b5056fea2646970667358221220155a15b7395238e046eb797a462c96f2a3732b63d592dab3b560945f96f01e3b64736f6c6343000807003368747470733a2f2f73332d75732d776573742d322e616d617a6f6e6177732e636f6d2f756461636974792d626c6f636b636861696e2f63617073746f6e652f",
  "immutableReferences": {},
  "source": "// SPDX-License-Identifier: MIT\npragma solidity >=0.6.0 <0.8.8;\n\nimport {GaleDotToken} from \"./ERC721Mintable.sol\";\nimport \"./Verifier.sol\";\n\n// TODO define a contract call to the zokrates generated solidity contract <Verifier> or <renamedVerifier>\ncontract SquareVerifier is Verifier {\n\n}\n\n// TODO define another contract named SolnSquareVerifier that inherits from your ERC721Mintable class\ncontract SolnSquareVerifier is GaleDotToken {\n    SquareVerifier public verifier;\n\n    constructor(address verifierAddress) GaleDotToken() {\n        verifier = SquareVerifier(verifierAddress);\n    }\n\n    // TODO define a solutions struct that can hold an index & an address\n    struct Solution {\n        uint256 tokenId;\n        address to;\n    }\n\n    // TODO define an array of the above struct\n    Solution[] submittedSolutions;\n\n    // TODO define a mapping to store unique solutions submitted\n    mapping(bytes32 => Solution) uniqueSolutions;\n    // TODO Create an event to emit when a solution is added\n    event SolutionAdded(\n        address indexed to,\n        uint256 indexed tokenId,\n        bytes32 indexed key\n    );\n\n    function getVerifierKey(\n        uint256[2] memory a,\n        uint256[2][2] memory b,\n        uint256[2] memory c,\n        uint256[2] memory input\n    ) public pure returns (bytes32) {\n        return keccak256(abi.encodePacked(a, b, c, input));\n    }\n\n    // TODO Create a function to add the solutions to the array and emit the event\n    function addSolution(\n        address _to,\n        uint256 _tokenId,\n        bytes32 _key\n    ) public {\n        Solution memory _soln = Solution({tokenId: _tokenId, to: _to});\n        submittedSolutions.push(_soln);\n        uniqueSolutions[_key] = _soln;\n        emit SolutionAdded(_to, _tokenId, _key);\n    }\n\n    // TODO Create a function to mint new NFT only after the solution has been verified\n    //  - make sure the solution is unique (has not been used before)\n    //  - make sure you handle metadata as well as tokenSuplly\n    function mintToken(\n        address to,\n        uint256 tokenId,\n        uint256[2] memory a,\n        uint256[2][2] memory b,\n        uint256[2] memory c,\n        uint256[2] memory input\n    ) public whenNotPaused {\n        bytes32 key = getVerifierKey(a, b, c, input);\n        require(\n            uniqueSolutions[key].to == address(0),\n            \"Solution is already used\"\n        );\n        Verifier.Proof memory proof = Verifier.Proof(\n            Pairing.G1Point(a[0], a[1]),\n            Pairing.G2Point(b[0], b[1]),\n            Pairing.G1Point(c[0], c[1])\n        );\n        require(verifier.verifyTx(proof, input), \"Solution is incorrect\");\n        addSolution(to, tokenId, key);\n        super.mint(to, tokenId);\n    }\n}\n",
  "sourcePath": "/home/jgale/WorkPlaces/BlockChain/Blockchain-Capstone/eth-contracts/contracts/SolnSquareVerifier.sol",
  "compiler": {
    "name": "solc",
    "version": "0.8.7+commit.e28d00a7.Emscripten.clang"
  },
  "schemaVersion": "3.4.3",
  "updatedAt": "2021-09-20T04:21:15.128Z",
  "devdoc": {
    "kind": "dev",
    "methods": {
      "isApprovedForAll(address,address)": {
        "details": "Tells whether an operator is approved by a given owner",
        "params": {
          "operator": "operator address which you want to query the approval of",
          "owner": "owner address which you want to query the approval of"
        },
        "returns": {
          "_0": "bool whether the given operator is approved by the given owner"
        }
      },
      "setApprovalForAll(address,bool)": {
        "details": "Sets or unsets the approval of a given operator An operator is allowed to transfer all tokens of the sender on their behalf",
        "params": {
          "approved": "representing the status of the approval to be set",
          "to": "operator address to set the approval"
        }
      },
      "supportsInterface(bytes4)": {
        "details": "implement supportsInterface(bytes4) using a lookup table"
      },
      "tokenByIndex(uint256)": {
        "details": "Gets the token ID at a given index of all the tokens in this contract Reverts if the index is greater or equal to the total number of tokens",
        "params": {
          "index": "uint256 representing the index to be accessed of the tokens list"
        },
        "returns": {
          "_0": "uint256 token ID at the given index of the tokens list"
        }
      },
      "tokenOfOwnerByIndex(address,uint256)": {
        "details": "Gets the token ID at a given index of the tokens list of the requested owner",
        "params": {
          "index": "uint256 representing the index to be accessed of the requested tokens list",
          "owner": "address owning the tokens list to be accessed"
        },
        "returns": {
          "_0": "uint256 token ID at the given index of the tokens list owned by the requested address"
        }
      },
      "totalSupply()": {
        "details": "Gets the total amount of tokens stored by the contract",
        "returns": {
          "_0": "uint256 representing the total amount of tokens"
        }
      }
    },
    "version": 1
  },
  "userdoc": {
    "kind": "user",
    "methods": {},
    "version": 1
  }
}