{
  "contractName": "SquareVerifier",
  "abi": [
    {
      "inputs": [
        {
          "components": [
            {
              "components": [
                {
                  "internalType": "uint256",
                  "name": "X",
                  "type": "uint256"
                },
                {
                  "internalType": "uint256",
                  "name": "Y",
                  "type": "uint256"
                }
              ],
              "internalType": "struct Pairing.G1Point",
              "name": "a",
              "type": "tuple"
            },
            {
              "components": [
                {
                  "internalType": "uint256[2]",
                  "name": "X",
                  "type": "uint256[2]"
                },
                {
                  "internalType": "uint256[2]",
                  "name": "Y",
                  "type": "uint256[2]"
                }
              ],
              "internalType": "struct Pairing.G2Point",
              "name": "b",
              "type": "tuple"
            },
            {
              "components": [
                {
                  "internalType": "uint256",
                  "name": "X",
                  "type": "uint256"
                },
                {
                  "internalType": "uint256",
                  "name": "Y",
                  "type": "uint256"
                }
              ],
              "internalType": "struct Pairing.G1Point",
              "name": "c",
              "type": "tuple"
            }
          ],
          "internalType": "struct Verifier.Proof",
          "name": "proof",
          "type": "tuple"
        },
        {
          "internalType": "uint256[2]",
          "name": "input",
          "type": "uint256[2]"
        }
      ],
      "name": "verifyTx",
      "outputs": [
        {
          "internalType": "bool",
          "name": "r",
          "type": "bool"
        }
      ],
      "stateMutability": "view",
      "type": "function"
    }
  ],
  "bytecode": "0x608060405234801561001057600080fd5b506114c7806100206000396000f3fe608060405234801561001057600080fd5b506004361061002b5760003560e01c806343cd76fc14610030575b600080fd5b61004a6004803603810190610045919061113d565b610060565b604051610057919061118e565b60405180910390f35b600080600267ffffffffffffffff81111561007e5761007d611426565b5b6040519080825280602002602001820160405280156100ac5781602001602082028036833780820191505090505b50905060005b6002811015610105578381600281106100ce576100cd6113f7565b5b60200201518282815181106100e6576100e56113f7565b5b60200260200101818152505080806100fd9061131f565b9150506100b2565b506000610112828661012e565b1415610122576001915050610128565b60009150505b92915050565b6000807f30644e72e131a029b85045b68181585d2833e84879b9709143e1f593f00000019050600061015e6102c5565b90508060800151516001865161017491906111f4565b1461017e57600080fd5b60006040518060400160405280600081526020016000815250905060005b865181101561023757838782815181106101b9576101b86113f7565b5b6020026020010151106101cb57600080fd5b6102228261021d85608001516001856101e491906111f4565b815181106101f5576101f46113f7565b5b60200260200101518a85815181106102105761020f6113f7565b5b6020026020010151610741565b6107e8565b9150808061022f9061131f565b91505061019c565b50610261818360800151600081518110610254576102536113f7565b5b60200260200101516107e8565b90506102a785600001518660200151610279846108b5565b856040015161028b8a604001516108b5565b876060015161029d89600001516108b5565b896020015161095a565b6102b757600193505050506102bf565b600093505050505b92915050565b6102cd610e82565b60405180604001604052807f05351eba7dbdb01f32a15f750af90d3dc2987365daf3ed645f836dd7afa62a8681526020017f2360a9035dabb2dc6bf55e33a6dfe24032c0058ff9bcbaf435282556743307a78152508160000181905250604051806040016040528060405180604001604052807f19f631686ff3365217073d9f9221ad076f87eb7a98c3aca408aa24fd734aa4ac81526020017f2bd55e4a34e7887216a9d270be205e4fea974353d25b57a20ac4954c7f608876815250815260200160405180604001604052807f11f05c94565186a8b57eb976c851feb9f76ac935cdb0d044aa884fb56a7c5bfc81526020017f1fa708a45f7ccaa1bdac35f5adc39f88f7b4c0b1935b23b007ee3b087c79ba3a8152508152508160200181905250604051806040016040528060405180604001604052807f2816b0fde54286f6ff821c658fdfae630d24b01684187042f9482b3fe17c766581526020017f08e90b2cb5e8b86e06647dd6fb94ff30bb431ad36d16b8265333b2eb3fe5bc07815250815260200160405180604001604052807f1ef86ade195f17222c7862e677fd8a825c3e6fc3d3003a70d877c84e6bb8b27581526020017f102f647ad305a9aca8ed9f57f74589d844568707125f5c3f9282697a135461668152508152508160400181905250604051806040016040528060405180604001604052807f22e2f95d567482aa198b6910ae62a9c6d2f20fe331112df568457c2bdba23aac81526020017f201c4a3df45d7cb5999695955eb4b88ca44082bb41729e01adc9f0d2a330fd28815250815260200160405180604001604052807f08f86140051f4cd43ac1f9077682c4a26884e40d9435d0ab5cfa471df371873781526020017f12466498d01c14476ffdb1519f9a4f73c6640c0a26b1fc322dc245d0516cef9c8152508152508160600181905250600367ffffffffffffffff81111561059457610593611426565b5b6040519080825280602002602001820160405280156105cd57816020015b6105ba610ec9565b8152602001906001900390816105b25790505b50816080018190525060405180604001604052807f1527821d64a4a79c7317647614c098357e9cdf7f9a8c214944744a5ba7d2353e81526020017f1bb60e0a7347f4e33619cbed86d951862a007df8891a90b300f1450036cacc358152508160800151600081518110610643576106426113f7565b5b602002602001018190525060405180604001604052807f1a9e382b1ade53383219a78d79557bceceaca628a76edab1dfe20bfe33e6f03181526020017f059dae4759e315899c720349497af1a3f7c86211df80b730ebde6252dd90835d81525081608001516001815181106106bb576106ba6113f7565b5b602002602001018190525060405180604001604052807f184dd2167be3db38907ff780c39fed1c799771a61eb0015d585ea1dd6d03c36581526020017f12a4c3de244a61bbaa8f6aa8de45bf09fd50aee575de57a2a9ed461799f7b5e78152508160800151600281518110610733576107326113f7565b5b602002602001018190525090565b610749610ec9565b610751610ee3565b83600001518160006003811061076a576107696113f7565b5b60200201818152505083602001518160016003811061078c5761078b6113f7565b5b60200201818152505082816002600381106107aa576107a96113f7565b5b602002018181525050600060608360808460076107d05a03fa905080600081146107d3576107d5565bfe5b50806107e057600080fd5b505092915050565b6107f0610ec9565b6107f8610f05565b836000015181600060048110610811576108106113f7565b5b602002018181525050836020015181600160048110610833576108326113f7565b5b602002018181525050826000015181600260048110610855576108546113f7565b5b602002018181525050826020015181600360048110610877576108766113f7565b5b602002018181525050600060608360c08460066107d05a03fa905080600081146108a0576108a2565bfe5b50806108ad57600080fd5b505092915050565b6108bd610ec9565b60007f30644e72e131a029b85045b68181585d97816a916871ca8d3c208c16d87cfd479050600083600001511480156108fa575060008360200151145b1561091e576040518060400160405280600081526020016000815250915050610955565b6040518060400160405280846000015181526020018285602001516109439190611368565b8361094e91906112a4565b8152509150505b919050565b600080600467ffffffffffffffff81111561097857610977611426565b5b6040519080825280602002602001820160405280156109b157816020015b61099e610ec9565b8152602001906001900390816109965790505b5090506000600467ffffffffffffffff8111156109d1576109d0611426565b5b604051908082528060200260200182016040528015610a0a57816020015b6109f7610f27565b8152602001906001900390816109ef5790505b5090508a82600081518110610a2257610a216113f7565b5b60200260200101819052508882600181518110610a4257610a416113f7565b5b60200260200101819052508682600281518110610a6257610a616113f7565b5b60200260200101819052508482600381518110610a8257610a816113f7565b5b60200260200101819052508981600081518110610aa257610aa16113f7565b5b60200260200101819052508781600181518110610ac257610ac16113f7565b5b60200260200101819052508581600281518110610ae257610ae16113f7565b5b60200260200101819052508381600381518110610b0257610b016113f7565b5b6020026020010181905250610b178282610b27565b9250505098975050505050505050565b60008151835114610b3757600080fd5b6000835190506000600682610b4c919061124a565b905060008167ffffffffffffffff811115610b6a57610b69611426565b5b604051908082528060200260200182016040528015610b985781602001602082028036833780820191505090505b50905060005b83811015610e1d57868181518110610bb957610bb86113f7565b5b602002602001015160000151826000600684610bd5919061124a565b610bdf91906111f4565b81518110610bf057610bef6113f7565b5b602002602001018181525050868181518110610c0f57610c0e6113f7565b5b602002602001015160200151826001600684610c2b919061124a565b610c3591906111f4565b81518110610c4657610c456113f7565b5b602002602001018181525050858181518110610c6557610c646113f7565b5b602002602001015160000151600160028110610c8457610c836113f7565b5b6020020151826002600684610c99919061124a565b610ca391906111f4565b81518110610cb457610cb36113f7565b5b602002602001018181525050858181518110610cd357610cd26113f7565b5b602002602001015160000151600060028110610cf257610cf16113f7565b5b6020020151826003600684610d07919061124a565b610d1191906111f4565b81518110610d2257610d216113f7565b5b602002602001018181525050858181518110610d4157610d406113f7565b5b602002602001015160200151600160028110610d6057610d5f6113f7565b5b6020020151826004600684610d75919061124a565b610d7f91906111f4565b81518110610d9057610d8f6113f7565b5b602002602001018181525050858181518110610daf57610dae6113f7565b5b602002602001015160200151600060028110610dce57610dcd6113f7565b5b6020020151826005600684610de3919061124a565b610ded91906111f4565b81518110610dfe57610dfd6113f7565b5b6020026020010181815250508080610e159061131f565b915050610b9e565b50610e26610f4d565b6000602082602086026020860160086107d05a03fa90508060008114610e4b57610e4d565bfe5b5080610e5857600080fd5b600082600060018110610e6e57610e6d6113f7565b5b602002015114159550505050505092915050565b6040518060a00160405280610e95610ec9565b8152602001610ea2610f27565b8152602001610eaf610f27565b8152602001610ebc610f27565b8152602001606081525090565b604051806040016040528060008152602001600081525090565b6040518060600160405280600390602082028036833780820191505090505090565b6040518060800160405280600490602082028036833780820191505090505090565b6040518060400160405280610f3a610f6f565b8152602001610f47610f6f565b81525090565b6040518060200160405280600190602082028036833780820191505090505090565b6040518060400160405280600290602082028036833780820191505090505090565b6000610fa4610f9f846111ce565b6111a9565b90508082856020860282011115610fbe57610fbd61145f565b5b60005b85811015610fee5781610fd48882611128565b845260208401935060208301925050600181019050610fc1565b5050509392505050565b600082601f83011261100d5761100c611455565b5b600261101a848285610f91565b91505092915050565b6000604082840312156110395761103861145a565b5b61104360406111a9565b9050600061105384828501611128565b600083015250602061106784828501611128565b60208301525092915050565b6000608082840312156110895761108861145a565b5b61109360406111a9565b905060006110a384828501610ff8565b60008301525060406110b784828501610ff8565b60208301525092915050565b600061010082840312156110da576110d961145a565b5b6110e460606111a9565b905060006110f484828501611023565b600083015250604061110884828501611073565b60208301525060c061111c84828501611023565b60408301525092915050565b6000813590506111378161147a565b92915050565b600080610140838503121561115557611154611464565b5b6000611163858286016110c3565b92505061010061117585828601610ff8565b9150509250929050565b611188816112d8565b82525050565b60006020820190506111a3600083018461117f565b92915050565b60006111b36111c4565b90506111bf82826112ee565b919050565b6000604051905090565b600067ffffffffffffffff8211156111e9576111e8611426565b5b602082029050919050565b60006111ff826112e4565b915061120a836112e4565b9250827fffffffffffffffffffffffffffffffffffffffffffffffffffffffffffffffff0382111561123f5761123e611399565b5b828201905092915050565b6000611255826112e4565b9150611260836112e4565b9250817fffffffffffffffffffffffffffffffffffffffffffffffffffffffffffffffff048311821515161561129957611298611399565b5b828202905092915050565b60006112af826112e4565b91506112ba836112e4565b9250828210156112cd576112cc611399565b5b828203905092915050565b60008115159050919050565b6000819050919050565b6112f782611469565b810181811067ffffffffffffffff8211171561131657611315611426565b5b80604052505050565b600061132a826112e4565b91507fffffffffffffffffffffffffffffffffffffffffffffffffffffffffffffffff82141561135d5761135c611399565b5b600182019050919050565b6000611373826112e4565b915061137e836112e4565b92508261138e5761138d6113c8565b5b828206905092915050565b7f4e487b7100000000000000000000000000000000000000000000000000000000600052601160045260246000fd5b7f4e487b7100000000000000000000000000000000000000000000000000000000600052601260045260246000fd5b7f4e487b7100000000000000000000000000000000000000000000000000000000600052603260045260246000fd5b7f4e487b7100000000000000000000000000000000000000000000000000000000600052604160045260246000fd5b600080fd5b600080fd5b600080fd5b600080fd5b6000601f19601f8301169050919050565b611483816112e4565b811461148e57600080fd5b5056fea2646970667358221220530cb49d7a64ced3033d6e7b98a9743e55a88a314a97d2bbddb52ac0f915567b64736f6c63430008070033",
  "immutableReferences": {},
  "source": "// SPDX-License-Identifier: MIT\npragma solidity >=0.6.0 <0.8.8;\n\nimport {GaleDotToken} from \"./ERC721Mintable.sol\";\nimport \"./Verifier.sol\";\n\n// TODO define a contract call to the zokrates generated solidity contract <Verifier> or <renamedVerifier>\ncontract SquareVerifier is Verifier {\n\n}\n\n// TODO define another contract named SolnSquareVerifier that inherits from your ERC721Mintable class\ncontract SolnSquareVerifier is GaleDotToken {\n    SquareVerifier public verifier;\n\n    constructor(address verifierAddress) GaleDotToken() {\n        verifier = SquareVerifier(verifierAddress);\n    }\n\n    // TODO define a solutions struct that can hold an index & an address\n    struct Solution {\n        uint256 tokenId;\n        address to;\n    }\n\n    // TODO define an array of the above struct\n    Solution[] submittedSolutions;\n\n    // TODO define a mapping to store unique solutions submitted\n    mapping(bytes32 => Solution) uniqueSolutions;\n    // TODO Create an event to emit when a solution is added\n    event SolutionAdded(\n        address indexed to,\n        uint256 indexed tokenId,\n        bytes32 indexed key\n    );\n\n    function getVerifierKey(\n        uint256[2] memory a,\n        uint256[2][2] memory b,\n        uint256[2] memory c,\n        uint256[2] memory input\n    ) public pure returns (bytes32) {\n        return keccak256(abi.encodePacked(a, b, c, input));\n    }\n\n    // TODO Create a function to add the solutions to the array and emit the event\n    function addSolution(\n        address _to,\n        uint256 _tokenId,\n        bytes32 _key\n    ) public {\n        Solution memory _soln = Solution({tokenId: _tokenId, to: _to});\n        submittedSolutions.push(_soln);\n        uniqueSolutions[_key] = _soln;\n        emit SolutionAdded(_to, _tokenId, _key);\n    }\n\n    // TODO Create a function to mint new NFT only after the solution has been verified\n    //  - make sure the solution is unique (has not been used before)\n    //  - make sure you handle metadata as well as tokenSuplly\n    function mintToken(\n        address to,\n        uint256 tokenId,\n        uint256[2] memory a,\n        uint256[2][2] memory b,\n        uint256[2] memory c,\n        uint256[2] memory input\n    ) public whenNotPaused {\n        bytes32 key = getVerifierKey(a, b, c, input);\n        require(\n            uniqueSolutions[key].to == address(0),\n            \"Solution is already used\"\n        );\n        Verifier.Proof memory proof = Verifier.Proof(\n            Pairing.G1Point(a[0], a[1]),\n            Pairing.G2Point(b[0], b[1]),\n            Pairing.G1Point(c[0], c[1])\n        );\n        require(verifier.verifyTx(proof, input), \"Solution is incorrect\");\n        addSolution(to, tokenId, key);\n        super.mint(to, tokenId);\n    }\n}\n",
  "sourcePath": "/home/jgale/WorkPlaces/BlockChain/Blockchain-Capstone/eth-contracts/contracts/SolnSquareVerifier.sol",
  "compiler": {
    "name": "solc",
    "version": "0.8.7+commit.e28d00a7.Emscripten.clang"
  },
  "schemaVersion": "3.4.3",
  "updatedAt": "2021-09-20T04:21:15.137Z",
  "devdoc": {
    "kind": "dev",
    "methods": {},
    "version": 1
  },
  "userdoc": {
    "kind": "user",
    "methods": {},
    "version": 1
  }
}